:020000040800F2
:10000000C02E002099010008D91E0008DB1E000840
:10001000DF1E0008E31E0008E71E000800000000C5
:1000200000000000000000000000000001010008C6
:10003000EB1E00080000000045010008ED1E00084E
:10004000B3010008B3010008B3010008B3010008C0
:10005000B3010008B3010008B3010008B3010008B0
:10006000B30100083D270008B3010008B3010008F0
:10007000B3010008B3010008B3010008B301000890
:10008000B3010008B3010008B3010008B301000880
:10009000B3010008B3010008B3010008B301000870
:1000A000B3010008B3010008B3010008B301000860
:1000B000B3010008B3010008B3010008B301000850
:1000C000B3010008B3010008B3010008B301000840
:1000D000B3010008C31F0008B3010008B301000802
:1000E000B3010008B3010008B3010008DFF80CD029
:1000F00005F068F800480047BF1D0008C02E00202A
:10010000224B19680868B0E8F00F80F30988BFF344
:100110006F8F4FF0000080F311884EF00D0E704786
:100120000000000006480068006880F3088862B696
:1001300061B6BFF34F8FBFF36F8F00DF00BF00BF0B
:1001400008ED00E0EFF30980BFF36F8F0F4B1A68E3
:1001500020E9F00F106008B54FF0BF0080F3118860
:10016000BFF34F8FBFF36F8F03F0F6FB4FF000002C
:1001700080F31188BDE8084019680868B0E8F00FFE
:1001800080F30988BFF36F8F704700BF74000020B1
:10019000EFF3058070470000064880470648004797
:1001A000FEE7FEE7FEE7FEE7FEE7FEE7FEE7FEE727
:1001B000FEE7FEE79B020008ED0000080CB50020FA
:1001C000019000906C48006840F480306A490860F3
:1001D00000BF6948006800F4003000900198401C9E
:1001E0000190009818B90198B0F5A06FF1D162485C
:1001F000006800F4003010B10120009001E0002000
:1002000000900098012843D15C48006840F010003D
:100210005A4908600846006820F003000860084654
:10022000006840F002000860534840685249486046
:100230000846406848600846406840F4806048606E
:100240000846406820F47C1048600846406840F446
:10025000E81048600846006840F08070086000BF01
:100260004548006800F000700028F9D04248406816
:1002700020F00300404948600846406840F0020012
:10028000486000BF3C48406800F00C000828F9D1E5
:100290000CBD10B5FFF792FF10BD10B536480068D1
:1002A00040F001003449086008464068344908407D
:1002B0003149486008460068324908402E490860C4
:1002C0000846006820F4802008600846406820F452
:1002D000FE0048604FF41F008860FFF7DAFF4FF020
:1002E00000602949086010BD10B5002100200022DF
:1002F000214B5B6803F00C0121B1042906D00829C9
:1003000028D107E0214B224C236027E01F4B204CD3
:10031000236023E0184B5B6803F47010164B5B6896
:1003200003F48032022303EB904022B9194B43437C
:10033000174C23600DE0104B5B6803F4003323B1CE
:10034000144B4343124C236003E0104B4343104CC7
:10035000236003E00D4B0E4C236000BF00BF064B33
:100360005B68C3F303130C4CE15C094B1B68CB4087
:10037000074C236010BD0000001002400020024026
:100380000000FFF8FFFFF6FE08ED00E000127A0023
:100390000000002000093D00040000203149014315
:1003A000314A1160704770B5002100230F22C478D4
:1003B00004B32D4C246804F4E064C4F5E064210A1D
:1003C000C1F10403CA40447804FA03F1847814406C
:1003D00021430901254C0678A155047804F01F0536
:1003E0000124AC4005786D11AD0005F1E025C5F89C
:1003F000004109E0047804F01F050124AC401C4DC5
:100400000678761145F8264070BD1A4A0A40024324
:10041000154B1B1F1A60704739B1134A121D126821
:100420000243114B1B1D1A6006E00F4A121D126891
:1004300082430D4B1B1D1A607047042808D14FF0F2
:10044000E021096941F004014FF0E022116107E069
:100450004FF0E021096921F004014FF0E022116121
:10046000704700000000FA050CED00E000E400E039
:1004700080E100E080FFFF1F002044490860091D63
:100480000860091D0860091D086041483F49143192
:100490000860704700213D498279002A3AD00A4617
:1004A000126803689A430B461A600A1D12680368B3
:1004B0009A430B1D1A60027911440A6803681A43B3
:1004C0000A60324A0832126803689A432F4B083395
:1004D0001A601A1D126803689A432C4B0C331A6079
:1004E0004279102A0ED11A1F126803681A43274B4B
:1004F00008331A601A1D126803681A43234B0C3321
:100500001A600DE02149427911440A6803681A43D0
:100510000A6005E0027911440A6803689A430A6098
:1005200070470021016001710C214171002181712E
:1005300070471649103109680143144A103211609E
:10054000704701460020114A143212680A400AB16D
:10055000012000E0002070470C491431086070470A
:10056000014600200022094B1B6803EA0102074BE9
:1005700014331B680B4013B10AB1012000E00020C6
:1005800070470249143108607047000000040140C0
:10059000FFFF0F0010B50446CC48844208D101216A
:1005A000042004F051FE0021042004F04DFE46E03A
:1005B000C748844208D10121082004F045FE0021EB
:1005C000082004F041FE3AE0C248844208D10121EB
:1005D000102004F039FE0021102004F035FE2EE03A
:1005E000BD48844208D10121202004F02DFE0021C5
:1005F000202004F029FE22E0B848844208D10121DD
:10060000402004F021FE0021402004F01DFE16E0F1
:10061000B348844208D10121802004F015FE002156
:10062000802004F011FE0AE0AE48844207D1012187
:10063000801504F009FE0021A01504F005FE10BD90
:1006400010B50121084604F0FFFD0021012004F04F
:10065000FBFD10BD2DE9F0410246002500260020DB
:1006600000230024002791F803C00CF00F0591F837
:1006700003C00CF0100CBCF1000F03D091F802C0C5
:100680004CEA050591F800C0BCF1000F31D01468A8
:1006900000202BE04FF0010C0CFA00F3B1F800C081
:1006A0000CEA03069E4220D183004FF00F0C0CFA97
:1006B00003F7BC4305FA03FC4CEA040491F803C0B9
:1006C000BCF1280F06D14FF0010C0CFA00FCC2F867
:1006D00014C00AE091F803C0BCF1480F05D14FF0F7
:1006E000010C0CFA00FCC2F810C0401C0828D1D341
:1006F0001460B1F800C0BCF1FF0F34DD5468002075
:100700002EE000F1080C4FF0010808FA0CF3B1F8E4
:1007100000C00CEA03069E4221D183004FF00F0C6B
:100720000CFA03F7BC4305FA03FC4CEA040491F805
:1007300003C0BCF1280F05D100F1080C08FA0CF831
:10074000C2F8148091F803C0BCF1480F07D100F142
:10075000080C4FF0010808FA0CF8C2F81080401C91
:100760000828CED35460BDE8F0814FF6FF710180B8
:10077000022181700421C1707047024600209368F5
:100780000B400BB1012000E0002070470146886853
:1007900080B2704702460020D3680B400BB10120A5
:1007A00000E0002070470146C86880B270470161D0
:1007B0007047416170470AB1016100E041617047D3
:1007C000C16070474FF480320A4382618161826167
:1007D00082698269704702460020434B18684FF6D1
:1007E0008073184040EA021008433F4B186070477E
:1007F0003E49C8617047F0B50A4600230024002135
:10080000002500F00046B6F1004F02D1364EF169E6
:1008100001E0354E7168C0F3034583B200F4401621
:10082000B6F5401F08D121F070612F4E766826F092
:1008300070662D4F7E6012E000F48016B6F5801FC2
:1008400006D1032606FA05F4A14341F0706106E0E3
:10085000460D360103FA06F6B14341F0706122B14C
:10086000460D360103FA06F6314300F00046B6F1B4
:10087000004F02D11C4EF16101E01B4E7160F0BDD2
:1008800030B500228B071C0F0F2303FA04F2164B1E
:1008900008338C1053F824309343134C08348D10D4
:1008A00044F8253023468C1053F824308C07240F4D
:1008B00000FA04F423430C4C08348D1044F825301E
:1008C00030BD0A49DC310860704700000008014073
:1008D000000C0140001001400014014000180140CC
:1008E000001C0140002001400000014000002042A7
:1008F00010B50446FE48844208D10121C01404F01A
:10090000A3FC0021E01404F09FFCC4E0B4F1804F8C
:1009100008D10121084604F077FC0021012004F0F1
:1009200073FCB8E0F348844208D10121022004F0AE
:100930006BFC0021022004F067FCACE0EE4884422E
:1009400008D10121042004F05FFC0021042004F000
:100950005BFCA0E0E948844208D10121082004F0B2
:1009600053FC0021082004F04FFC94E0E44884424A
:1009700008D10121102004F047FC0021102004F0D0
:1009800043FC88E0DF48844208D10121202004F0A4
:100990003BFC0021202004F037FC7CE0DA48844254
:1009A00008D10121401404F04FFC0021601404F030
:1009B0004BFC70E0D548844209D10121C80404F001
:1009C00043FC00214FF4002004F03EFC63E0D048DB
:1009D000844209D10121080504F036FC00214FF4BE
:1009E000801004F031FC56E0CA48844209D101214C
:1009F000480504F029FC00214FF4001004F024FC09
:100A000049E0C548844208D10121402004F0FCFBA4
:100A10000021402004F0F8FB3DE0C048844208D1AA
:100A20000121802004F0F0FB0021802004F0ECFB89
:100A300031E0BB48844208D10121801504F0E4FB79
:100A40000021A01504F0E0FB25E0B648844209D15E
:100A50000121080404F0F8FB00214FF4803004F079
:100A6000F3FB18E0B048844209D10121480404F0A6
:100A7000EBFB00214FF4003004F0E6FB0BE0AB4849
:100A8000844208D10121880404F0DEFB00214FF4E8
:100A9000802004F0D9FB10BD00220288944B9842BC
:100AA0000ED0994B98420BD0B0F1804F08D0914BAB
:100AB000984205D0904B984202D0904B984204D176
:100AC0004FF68F731A404B881A438D4B984207D0CC
:100AD0008C4B984204D04FF6FF431A40CB881A4300
:100AE00002808B8883850B880385814B98420BD0CD
:100AF000854B984208D08B4B984205D08A4B984240
:100B000002D08A4B984201D10B7A0386012383825B
:100B1000704770B5002400220023058C4FF6FE7646
:100B200035400584028C8388048B4FF68F752C40EA
:100B3000B51E2C400D882C43751E2A400D892A4372
:100B40004D882A436A4DA8420BD06F4DA84208D069
:100B5000744DA84205D0744DA84202D0734DA842EE
:100B600013D14FF6F7752A404D892A434FF6FB758E
:100B70002A408D882A434FF6FF652B404FF6FF55DC
:100B80002B408D892B43CD892B4383800483CD88D3
:100B90008586028470BD70B5002400220023058C78
:100BA0004FF6EF7635400584028C8388048B48F637
:100BB000FF752C404FF6FF452C400D884FF6FF7611
:100BC00006EA05252C434FF6DF752A400D8906EA13
:100BD00005152A434D8806EA05152A43444DA842C7
:100BE00002D0494DA8421DD14FF67F752A404D894C
:100BF0004FF6FF7606EA05152A434FF6BF752A40E1
:100C00008D8806EA05152A434FF6FF352B404FF233
:100C1000FF752B408D8906EA85052B43CD8906EAB1
:100C200085052B4383800483CD880587028470BDAE
:100C300070B5002400220023058C4FF6FF66354076
:100C40000584028C8388848B4FF68F752C404FF679
:100C5000FC752C400D882C434FF6FF552A400D891A
:100C60004FF6FF7606EA05252A434D8806EA052554
:100C70002A431F4DA84202D0234DA8421DD14FF256
:100C8000FF752A404D894FF6FF7606EA05252A436F
:100C90004FF6FF352A408D8806EA05252A434EF691
:100CA000FF752B404DF6FF752B408D8906EA051523
:100CB0002B43CD8906EA05152B4383808483CD8899
:100CC0008587028470BD70B5002200230024058C46
:100CD0004EF6FF7635400584038C8488828B48F677
:100CE000FF752A404FF6FF452A400D8820E000009E
:100CF000002C01400004004000080040000C0040AF
:100D0000001000400014004000340140004C01403D
:100D1000005001400054014000180040001C0040F9
:100D200000200040004001400044014000480140D4
:100D30004FF6FF7606EA05252A434DF6FF752B4050
:100D40000D8906EA05352B434D8806EA05352B4308
:100D5000FA4DA84202D0FA4DA84208D14BF6FF75D1
:100D60002C408D894FF6FF7606EA85152C4384804A
:100D70008283CD88A0F84050038470BD828B4FF2EF
:100D8000FF331A408283828B4FF6FF7303EA0123FD
:100D90001A4382837047F0B50C46154600220021A5
:100DA0000026078C4EF6FF7C07EA0C070784828B2F
:100DB000018C4FF6FF7707EA043640F6FF473A40CA
:100DC0004FF6FF7707EA05273A434FF6FF7707EA22
:100DD00003373A43D94FB8420ED0D94FB8420BD05F
:100DE000B0F1804F08D0D74FB84205D0D64FB842A7
:100DF00002D0D64FB84206D14DF6FF77394046F4BF
:100E00008057394305E047F6FF57394044F480578F
:100E1000394382830184F0BD828B4FF6F3731A400D
:100E20008283828B0A4382837047F0B50C46154655
:100E3000002200210026078C4FF6FF6C07EA0C0702
:100E40000784828B018C4FF6FF7707EA04264FF662
:100E50000C773A404FF6FF7707EA03172F433A43E0
:100E6000B64FB8420ED0B64FB8420BD0B0F1804F5B
:100E700008D0B44FB84205D0B34FB84202D0B34FF8
:100E8000B84206D14FF6FF57394046F480773943D0
:100E900005E04FF2FF57394044F4807739438283AD
:100EA0000184F0BD028B4FF2FF331A400283028BA4
:100EB0004FF6FF7303EA01231A4302837047F0B52C
:100EC0000C461546002200210026078C4FF6EF7CC9
:100ED00007EA0C070784028B018C4FF6FF7707EABD
:100EE000041640F6FF473A404FF6FF7707EA03370C
:100EF0003A434FF6FF7707EA05273A438F4FB84248
:100F00000ED08F4FB8420BD0B0F1804F08D08D4F2C
:100F1000B84205D08C4FB84202D08C4FB84206D1AF
:100F20004FF6DF77394046F01007394305E04FF6BA
:100F30005F77394044F01007394302830184F0BDE4
:100F4000028B4FF6F3731A400283028B0A4302832B
:100F50007047F0B50C46154600220021068C4FF66E
:100F6000FE773E400684028B018C4FF60C763240B1
:100F70007E1C06EA03162E433243704EB0420ED05A
:100F80006F4EB0420BD0B0F1804F08D06D4EB042E2
:100F900005D06D4EB04202D06C4EB04206D14FF635
:100FA000FD76314044F00106314305E04FF6F57619
:100FB000314044F00106314302830184F0BD70B535
:100FC00005460C465D4885420ED05D4885420BD0F3
:100FD000B5F1804F08D05B48854205D05A4885421C
:100FE00002D05A48854200D100E000BF208850B9A5
:100FF0002389A28861882846FFF7ABFFE18828464D
:10100000FFF79EFF25E0208804280AD12389A288C3
:1010100061882846FFF753FFE1882846FFF742FF23
:1010200017E0208808280AD12389A28861882846E9
:10103000FFF7FBFEE1882846FFF7EEFE09E0238973
:10104000A28861882846FFF7A6FEE1882846FFF7B8
:1010500095FE70BD2DE9F04105460C46002601279E
:10106000608808B9022600E00026A088012801D186
:10107000022700E001272088A0B92389A28861887F
:101080002846FFF766FFE1882846FFF759FF2389C6
:101090003A4631462846FFF712FFE1882846FFF717
:1010A00001FF13E02389A28861882846FFF707FF24
:1010B000E1882846FFF7F6FE23893A46314628465E
:1010C000FFF747FFE1882846FFF73AFFBDE8F081C8
:1010D0000A884B881A438B881A43CB881A430B899A
:1010E0001A434B891A438B891A43A0F8442070474E
:1010F0004FF6FF71818000210180C1804180017223
:1011000070470021018041808180C180018141813F
:101110008181C1817047002101804180012181804E
:101120000021C180018170470021018041808180C0
:10113000C18001814181818170470000002C014004
:10114000003401400004004000080040000C004052
:1011500021B1028842F00102028004E002884FF6C9
:10116000FE731A400280704731B1B0F8442042F457
:101170000042A0F8442005E0B0F84420C2F30E027B
:10118000A0F8442070471AB183890B43838102E0A1
:1011900083898B43838170478182704741EA0203D0
:1011A000A0F8483070471AB183890B43838102E06D
:1011B00083898B438381704701894FF6F872114010
:1011C000018170470A46002101894FF68F7319404B
:1011D00011430181704730B504460D46294620462B
:1011E000FFF7F0FF208940F00700208130BD2DE996
:1011F000F04104460D4616461F46602D06D13B467B
:10120000012231462046FFF75AFE05E03B46012207
:1012100031462046FFF79DFE29462046FFF7D2FFC4
:10122000208940F007002081BDE8F08130B50C46F0
:1012300000210189C9B24FF6FF7505EA0325154360
:1012400025432943018130BD2DE9F04105460E4675
:1012500017469846002443463A4631462846FFF74B
:10126000E5FF2C894FF6F870044044F007044FF670
:101270008F70044044F070042C81BDE8F081F0B51B
:1012800004460D4616461F463B4632462946204632
:10129000FFF7CCFF208940F480402081F0BD01851C
:1012A000828270470A46002101884FF68F731940E9
:1012B000114301807047F0B50C4615461E460021CB
:1012C000002200230189028B038C4FF6F877394006
:1012D00021434FF6FC473A4040F201173A434FF69C
:1012E000DD773B404FF6FF7707EA06172F433B4376
:1012F000018102830384F0BD0A460021018B4FF671
:101300008F7319401143018370470A460021018BF6
:1013100048F6FF7319404FF6FF7303EA022319439F
:10132000018370470A460021818B4FF68F73194065
:101330001143818370470A460021818B48F6FF7371
:1013400019404FF6FF7303EA022319438183704764
:1013500021B1028842F08002028004E002884FF648
:101360007F731A400280704721B1828842F00402E4
:10137000828004E082884FF6FB731A4082807047B7
:1013800021B1828842F00802828004E082884FF610
:10139000F7731A408280704721B1828842F00102BF
:1013A000828004E082884FF6FE731A408280704784
:1013B0000A460021018B4FF6F77319401143018350
:1013C00070470A460021018B4FF2FF7319404FF618
:1013D000FF7303EA02231943018370470A46002181
:1013E000818B4FF6F77319401143818370470A468A
:1013F0000021818B4FF2FF7319404FF6FF7303EA10
:1014000002231943818370470A460021018B4FF65E
:10141000FB7319401143018370470A460021018B79
:101420004FF6FF3319404FF6FF7303EA02231943C7
:10143000018370470A460021818B4FF6FB731940E8
:101440001143818370470A460021818B4FF6FF3399
:1014500019404FF6FF7303EA022319438183704753
:101460000A460021018B4FF67F7319401143018317
:1014700070470A460021018BC1F30E014FF6FF733E
:1014800003EA02231943018370470A460021818B36
:101490004FF67F7319401143818370470A4600213C
:1014A000818BC1F30E014FF6FF7303EA0223194348
:1014B000818370470A460021018C4FF6FD73194065
:1014C0001143018470470A460021018C4FF6F773DF
:1014D00019401143018470470A460021018C4FF6E0
:1014E000DF7319404FF6FF7303EA021319430184B7
:1014F00070470A460021018C4FF67F7319404FF662
:10150000FF7303EA02131943018470470A4600215E
:10151000018C4FF6FF5319404FF6FF7303EA022385
:101520001943018470470A460021018C4FF2FF7372
:1015300019404FF6FF7303EA0223194301847047F1
:101540000A460021018C4DF6FF7319404FF6FF73D8
:1015500003EA023319430184704730B500230124A4
:101560008C40A3B2048C9C430484048C02FA01F5E1
:10157000ADB22C43048430BD30B5002304248C402C
:10158000A3B2048C9C430484048C02FA01F5ADB22E
:101590002C43048430BD70B5034600200024184657
:1015A000183001258D40ACB21D8CA5431D8409B1B6
:1015B000082909D100EB6100056825F07005056078
:1015C0000568154305600EE00D1FC5F34E05284460
:1015D000056825F4E045056005684FF6FF7606EAE4
:1015E00002263543056070BD21B1028842F0020237
:1015F000028004E002884FF6FD731A4002807047B3
:1016000021B1028842F00402028004E002884FF611
:10161000FB731A400280704721B1828842F0800239
:10162000828004E082884FF67F731A408280704780
:1016300002884FF6F7731A40028002880A4302803C
:10164000704782884FF68F731A40828082880A43DF
:101650008280704702894FF6F8731A40028102892E
:101660000A430281704702894FF67F731A40028154
:1016700002890A43028170478184704781857047DF
:10168000818670470187704781877047A0F84010B6
:10169000704702884FF6FF431A40028002880A43CF
:1016A000028070470146888E70470146088F704758
:1016B0000146888F70470146B1F8400070470146E7
:1016C000888C70470146088D704702460020138AB7
:1016D0000B400BB1012000E000207047CA4302829A
:1016E000704730B50246002000230024158A05EA21
:1016F0000103958905EA010413B10CB1012000E052
:10170000002030BDCA4302827047000010B5044675
:10171000FB48844209D10121880303F095FD002193
:101720004FF4804003F090FD32E0F648844209D146
:101730000121480403F068FD00214FF4003003F05C
:1017400063FD25E0F048844209D10121880403F0BB
:101750005BFD00214FF4802003F056FD18E0EB48BC
:10176000844209D10121C80403F04EFD00214FF449
:10177000002003F049FD0BE0E548844208D1012137
:10178000080503F041FD00214FF4801003F03CFDFB
:1017900010BD2DE9F04786B005460E460024A2464E
:1017A00000BFA1460027B08900B100BF2F462C8A98
:1017B0004CF6FF700440F08804432C82AC894EF64E
:1017C000F3100440B0883189084371890843044309
:1017D000AC81AC8A4FF6FF400440B0890443AC8230
:1017E00001A803F041FDC648874202D1DDF810A0F0
:1017F00001E0DDF80CA0A88900F4004040B10AEB3C
:10180000CA0000EB0A1031684900B0FBF1F807E0AC
:101810000AEBCA0000EB0A1031688900B0FBF1F84E
:101820006420B8FBF0F004012009642101FB108959
:10183000A88900F4004040B1322000EBC900B0FBA1
:10184000F1F000F00700044308E0322000EB09103B
:101850006421B0FBF1F000F00F0004432C8106B0CE
:10186000BDE8F0874FF41651016000218180C180EE
:1018700001810C21418100218181704710B5024610
:101880000020108A4FF2FF0318400B884C88234336
:101890008C882343CC8823431843108210BD002139
:1018A000018041808180C180704721B1828942F4EA
:1018B0000052828104E082894DF6FF731A408281D2
:1018C0007047F0B50346002400260025002040F6AE
:1018D0006A17B94200D100BF1846C1F3421401F0A3
:1018E0001F06012707FA06F5012C01D10C3004E090
:1018F000022C01D1103000E014301AB107682F43D8
:10190000076002E00768AF430760F0BD1AB1838A41
:101910000B43838202E0838A8B4383827047028A6F
:101920004FF6F0731A400282028A0A43028270471D
:1019300082894FF2FF731A40828182890A43828131
:10194000704721B1828942F00202828104E08289DB
:101950004FF6FD731A4082817047028A4FF6DF739B
:101960001A400282028A0A430282704721B1028A27
:1019700042F48042028204E0028A4BF6FF731A406E
:1019800002827047C1F3080282807047014688884E
:10199000C0F308007047818941F0010181817047DF
:1019A000028BD2B20283028B42EA01220283704789
:1019B000028B02F47F420283028B0A430283704748
:1019C00021B1828A42F02002828204E0828A4FF6AC
:1019D000DF731A408282704721B1828A42F010027E
:1019E000828204E0828A4FF6EF731A408282704747
:1019F00021B1828A42F00802828204E0828A4FF694
:101A0000F7731A408282704721B1828942F4004202
:101A1000828103E08289C2F30E028281704721B184
:101A2000828A42F40062828204E0828A4FF2FF736B
:101A30001A4082827047828A4FF6FB731A40828274
:101A4000828A0A438282704721B1828A42F002026E
:101A5000828204E0828A4FF6FD731A4082827047C8
:101A600002460020B1F5007F00D100BF13880B4073
:101A70000BB1012000E00020704701F40072B2F5C4
:101A8000007F00D100BFCA430280704770B5024694
:101A9000002400230025002040F66A16B14200D140
:101AA00000BFC1F3421501F01F03012606FA03F33C
:101AB000012D02D19689334006E0022D02D1168A0B
:101AC000334001E0968A33400C12012606FA04F4F2
:101AD0001688344013B10CB1012000E0002070BD25
:101AE00010B50022002340F66A14A14200D100BFC5
:101AF0000A1201249440A3B2DC43048010BD00000C
:101B0000003801400044004000480040004C0040C4
:101B10000050004003E0B148008800F039FEFAE7C9
:101B20000EB52AE000F03DFB02900023052202A939
:101B3000AB48006801F0D0F841F21852029901FB5D
:101B400002F003F0E5F980460022A64B03F063F9AA
:101B500006460022A44B03F05EF904460022A14B86
:101B600003F059F982460022A04B03F03BF8CDE97F
:101B7000000103F018FA9E490860D3E71CB522E083
:101B80000023052201A99648006801F0FEF901989A
:101B900003F0BEF905460022924B03F03CF90746DC
:101BA00003F01AFA0446012002232246062100907F
:101BB00000F0E8FC0120022300908E480621026814
:101BC000184600F0DFFCDBE718E000F013FE0446E7
:101BD000012C08D18848006801F050FF00F0C2FDD8
:101BE000012086490870022C08D18348006801F062
:101BF000D9FE00F0C2FD002080490870E5E770477B
:101C00002DE9FC5F02F015FF7D48006803F091F9B3
:101C10000022744BCDE9000103F08BF880460022CE
:101C2000714B03F086F806460022764B03F0F3F87A
:101C30000446754A754B02F0D5FF824603F0CCF995
:101C40006C49086000F074FD6D4908600A4612880E
:101C500091B2674A128890B26D4A00F0B5FE5F49B2
:101C6000088002F0F5FEBDE8FC9F40E002F0E1FED6
:101C7000482000F0D3FD4FF44070FEF78FFB00F0DA
:101C8000E5F94FF4E13000F049F900F0BDFC00F057
:101C90002FFA00F011FD00F081FD00F097FD5DA22C
:101CA0000121084600F0B2FB5CA20B21012000F0EC
:101CB000ADFB5CA20121022000F0A8FB57A20B2182
:101CC000022000F0A3FB00F04DFD4B48006801F03E
:101CD00069FE002049490870544B554A55494C4803
:101CE00000F06AFE002001F0B6FB02F0B1FEBDE795
:101CF0007CB5054602F09DFE4F4802210023642278
:101D0000CDE900104DA1AFF29D0001F056FB4F4808
:101D100001231A46642100904DA002F0FFFC5049B7
:101D20000860504802230122142100904EA002F0C6
:101D3000F5FC5149086000220421052000F024FF31
:101D4000274908604D48022100231E22CDE90010DA
:101D50004BA1AFF28B1001F030FB4C480221002365
:101D60006422CDE900104AA14C4801F026FB4C4802
:101D7000022100233222CDE900104AA14D4801F092
:101D80001CFB1D48022100236422CDE900104AA15A
:101D9000AFF27F2001F011FB01F07AFF04460A2028
:101DA00000232246012100902D48006802F01AFB12
:101DB0004448006801F04FFB02F04AFE7CBD1CB5B0
:101DC0004048012100238022CDE900103EA1414876
:101DD00001F0F3FA01F023FF00201CBD6800002091
:101DE000480000200000244000004E400000E03F7A
:101DF00050000020540000203C000020580000202B
:101E00004C0000200018B5409A9999999999A93FDA
:101E1000E000002041444A3A00000000204C2F4DD1
:101E2000696E0000464C4F573A00000064000020E5
:101E3000600000205C0000203000002053797349CE
:101E40006E69745F7461736B00000000011C000810
:101E500054494D4552315F53414D504C45000000AF
:101E600040000020FF1B000854494D4552325F538B
:101E7000414D504C45000000440000202C00002043
:101E80004B65795F7461736B0000000034000020C3
:101E90004F4C45445F7461736B0000007D1B00086C
:101EA00038000020456E636F6465725F7461736B08
:101EB00000000000211B00084D6F746F725F746199
:101EC000736B00002800002073746172745F74618A
:101ED000736B0000F11C0008704700BFFEE700BFF5
:101EE000FEE700BFFEE700BFFEE7704710B501F058
:101EF000B2FF012801D002F0B9FD10BD70B5044653
:101F00000D46E1B24D48FFF73DFD00BF80214B4833
:101F1000FFF7A6FD0028F9D0204670BD10B586B0A9
:101F200004460121042003F07FF90121880303F016
:101F30007BF94FF40070ADF8140003208DF8160003
:101F400018208DF8170005A93D48FEF783FB4FF4D4
:101F50008060ADF8140004208DF8170005A93848FA
:101F6000FEF778FB01940020ADF80800ADF80A00F8
:101F7000ADF80C00ADF810000C20ADF80E0001A972
:101F80002E48FFF706FC01212C48FFF78EFC40216C
:101F90002A48FFF772FD012240F225512748FFF73A
:101FA00090FC25208DF8000003208DF801008DF8AD
:101FB000020001208DF803006846FEF7F4F906B030
:101FC00010BD10B540F225511C48FFF75FFD10B35E
:101FD0001A48FFF7DBFCC4B21A48008800F400403E
:101FE000C8B91848008800F4804060B10A2C03D0BA
:101FF00000201449088020E01248008840F4004086
:102000001049088019E00D2C06D10E48008840F4D4
:1020100080400C49088010E00A480088C0F30D0099
:1020200009490C5407480088401C064908800846A6
:102030000088C72801DD0020088010BD003801405D
:10204000000801406A0000200401002008B50121B9
:10205000042003F0E9F810208DF803000620ADF805
:10206000000003208DF8020069462048FEF7F2FACE
:1020700006211E48FEF79BFB08BD10B502211B4838
:10208000FEF797FB10BD10B502211848FEF78FFB35
:1020900010BD10B504211548FEF78BFB10BD10B51F
:1020A00004211248FEF783FB10BD10B502210F4832
:1020B000FEF770FB20B902210C48FEF778FB03E025
:1020C00002210A48FEF775FB10BD10B50421074830
:1020D000FEF760FB20B904210448FEF768FB03E02B
:1020E00004210248FEF765FB10BD00000008014016
:1020F00000B587B00121042003F096F848208DF840
:102100001B00C020ADF8180003208DF81A0006A9A6
:102110002848FEF79FFA0121022003F065F800200D
:10212000ADF81200ADF80E000B20ADF81000032042
:10213000ADF80C0000208DF8140003A91E48FEF72E
:10214000ABFC6846FEF7E7FF0020ADF800000F206B
:10215000ADF808000020ADF8020069461648FEF709
:102160002EFF0420ADF800000F20ADF8080000207D
:10217000ADF8020069461048FEF721FF00231A4619
:1021800003210D48FFF797F801210B48FEF7E0FF08
:1021900007B000BD10B50848FFF791FA0446204685
:1021A00010BD10B500240448FFF789FA0444204606
:1021B00010BD0000000801400004004008B50121E6
:1021C000082003F031F814208DF8030003208DF867
:1021D00002004FF48070ADF800006946FE48FEF73B
:1021E00039FA4FF40070ADF800006946FA48FEF77E
:1021F00031FA01221102F848FEF7DDFA01225102FC
:10220000F548FEF7D8FA08BD10B501225102F24890
:10221000FEF7D1FA01221102EF48FEF7CCFA0022B4
:102220004FF40071EC48FEF7C6FA00224FF48071BB
:10223000E948FEF7C0FA10BD10B500224FF4007156
:10224000E548FEF7B8FA01221102E348FEF7B3FAB7
:1022500001225102E048FEF7AEFA10BD70B5054606
:10226000002415E08020204100EA05024FF40071AF
:10227000D948FEF7A0FA01221102D748FEF79BFACF
:1022800000224FF48071D448FEF795FA601CC4B266
:10229000082CE7DB01221102CF48FEF78CFA00225E
:1022A0004FF48071CC48FEF786FA70BD10B5044635
:1022B000FFF7AAFF7820FFF7D1FF0020FFF7CEFF3E
:1022C0002046FFF7CBFFFFF7B7FF10BD10B5044660
:1022D000FFF79AFF7820FFF7C1FF4020FFF7BEFF0E
:1022E0002046FFF7BBFFFFF7A7FF10BD70B50546FF
:1022F0000C4645F0B000FFF7D9FF102141EA141059
:10230000FFF7D4FF04F00F00FFF7D0FF70BD70B5EA
:1023100000240EE000212046FFF7E8FF002504E03E
:102320000020FFF7D3FF681CC5B2802DF8DB601CCE
:10233000C4B2082CEEDB70BD2DE9F04105460E4617
:102340001746721E1207110E6A1E5206100EFFF774
:10235000CDFF002407E0A14901EB4711085DFFF71D
:10236000B5FF601CC4B2102CF5DB721E1207110EF3
:102370006A1E012303EB4202D0B2FFF7B7FF00242D
:1023800009E0964901EB471204F11001505CFFF798
:102390009DFF601CC4B2102CF3DBBDE8F0812DE979
:1023A000F04105460E461746721ED206110E6A1EF1
:1023B0005206100EFFF79AFF002409E0A7F1200152
:1023C000874A02EB0111085DFFF780FF601CC4B271
:1023D000082CF3DB721ED206110E6A1E012303EBDA
:1023E0004202D0B2FFF782FF00240BE0A7F12001E8
:1023F0007B4A02EB011204F10801505CFFF766FF13
:10240000601CC4B2082CF1DBBDE8F0812DE9F0417D
:1024100007460E461546002407E02A5D3019C1B272
:102420003846FFF7BCFF601CC4B2285D0028F4D119
:10243000BDE8F08110B50246012000E050430B1EBC
:10244000A1F10101FAD110BD2DE9F04780460E46F9
:1024500017461D46002415E0281B411E0A20FFF7E1
:10246000E9FFB7FBF0F00A21B0FBF1F201FB12002B
:1024700000F130093019C1B24A464046FFF78FFFDC
:10248000601CC4B2AC42E7DBBDE8F0872DE9F04741
:102490008146884615461E46002D06DB2B22414606
:1024A0004846FFF77CFF2F4605E02D22414648466F
:1024B000FFF775FF6F42002417E0301B411E0A2012
:1024C000FFF7B8FFB7FBF0F00A21B0FBF1F201FB18
:1024D000120000F1300A08EB0400401CC1B2524661
:1024E0004846FFF75CFF601CC4B2B442E5DBBDE8C0
:1024F000F0872DE9F04781460E4690461F4600249E
:102500001DE0381B411E1020FFF794FFB8FBF0F0D0
:1025100000F00F050A2D08DA05F13000C2B23019BB
:10252000C1B24846FFF73BFF07E005F13700C2B2F2
:102530003019C1B24846FFF732FF601CC4B2BC423A
:10254000DFDBBDE8F0872DE9F04780460E461746F1
:102550001D46002412E0281B411E0220FFF76AFFDF
:10256000B7FBF0F000F0010000F130093019C1B202
:102570004A464046FFF713FF601CC4B2AC42EADB98
:10258000BDE8F0872DE9FE4F81460C4615461E46F4
:102590000C9F284602F0DAFC0FFA80F833464246D8
:1025A00021464846FFF772FFA019401CC1B22E22F7
:1025B0004846FFF7F4FE39460A20FFF73BFF00903C
:1025C00002F0A1FC0190404602F094FC29460090E4
:1025D00002F0D3FA834605E0000C01404A59000896
:1025E0005A530008019902F0CBFA029002F0AEFCB7
:1025F0000FFA80FAA019801CC1B23B4652464846E9
:10260000FFF722FFBDE8FE8F70B5002406E000252D
:1026100000E06D1CB5F57A7FFBD3641CB4F57A7FBE
:10262000F5D3FFF7CBFDAE20FFF740FED520FFF737
:102630003DFE8020FFF73AFEA820FFF737FE3F203F
:10264000FFF734FED320FFF731FE0020FFF72EFE08
:102650004020FFF72BFEA120FFF728FEC820FFF740
:1026600025FEDA20FFF722FE1220FFF71FFE812051
:10267000FFF71CFECF20FFF719FED920FFF716FE4B
:10268000F120FFF713FEDB20FFF710FE3020FFF7ED
:102690000DFEA420FFF70AFEA620FFF707FE8D20FF
:1026A000FFF704FE1420FFF701FEAF20FFF7FEFD49
:1026B000FFF72DFE70BD00001FB50121042002F0C0
:1026C000B3FD0121084602F0AFFD48208DF80F0050
:1026D0000820ADF80C0003208DF80E0003A91F4858
:1026E000FDF7B8FF03210020FEF7CAF8082001908B
:1026F00001208DF80A0000208DF808000C208DF8CC
:10270000090001A8FDF7C6FE4FF4A060FDF746FEE4
:1027100009208DF8000001208DF8030003208DF8BA
:10272000010001208DF802006846FDF73CFE1FBD48
:102730000B49086800210A4A1160704710B508204B
:10274000FDF70EFF012807D105480068401C044929
:1027500008600820FDF715FF10BD000000080140CB
:102760006C00002010B510211748FEF720F820213A
:102770001548FEF71EF8012010BD10B510211248B3
:10278000FEF717F820211048FEF713F8002010BDBF
:1027900010B50446204600F004F910BD08B501212B
:1027A000042002F041FD10208DF803003020ADF828
:1027B000000003208DF8020069460348FDF74AFF38
:1027C00000F0A2F808BD00000008014008B5012192
:1027D000082002F029FD48208DF8030040F6020091
:1027E000ADF8000003208DF8020069460A48FDF7A5
:1027F00031FF08BD10B5002402210748FDF7BDFFD9
:1028000000B901244FF400610348FDF7B6FF00B999
:102810000224204610BD0000000C014070B50546A2
:102820000420FDF70AFE344800683449B0FBF1F09B
:1028300033490870304800683049B0FBF1F44FF478
:102840007A70444301202F4908804FF0E02000694E
:1028500040F002004FF0E021086108464461006941
:1028600040F00100086170BD70B5034600224FF0D2
:10287000E0267569224E367803FB06F44FF0E02619
:10288000B16910E04FF0E026B06988420BD0884271
:1028900002D20E1A324402E02E1A0E44324401468D
:1028A000A24200D300E0EDE700BF70BD70B5044662
:1028B00014480088844206D312480088B4FBF0F51F
:1028C000284600F098FF0F480088B4FBF0F100FBA9
:1028D00011444FF47A7104FB01F0FFF7C5FF70BD9E
:1028E00030B50446002504E04FF47A70FFF7BCFFD2
:1028F0006D1CA542F8D330BD0000002040420F00FF
:10290000700000207200002000B589B00121042071
:1029100002F08AFC18208DF823000120ADF8200079
:1029200003208DF8220008A92248FDF793FE01211B
:102930002048FDF73CFF0121084602F055FC4FF00E
:102940008040FEF739FC0020ADF81A00ADF8160003
:1029500040F2E730ADF818004720ADF81400002031
:102960008DF81C0005A94FF08040FEF795F801A8EE
:10297000FEF7C7FB6020ADF804000020ADF80C00A6
:102980000120ADF806000020ADF80A0001A94FF0C3
:102990008040FEF7BEF801218807FEF7D9FB09B099
:1029A00000BD10B50446A1B24FF08040FEF768FEAE
:1029B00010BD00000008014010B50C6804601468E8
:1029C00044601C68846010BD2DE9F04705460E4642
:1029D0001446A81B02F08EFA20612169E06902F01A
:1029E00077F8E061D4E9040102F0C4F88146A168F7
:1029F00002F0C6F80746E169606802F0C1F8814656
:102A00002169206802F0BCF88246494602F060F86D
:102A10008046394602F05CF820622069606115B991
:102A20000020BDE8F0870021206A02F0F1FA01D20F
:102A30000020F6E70649206A02F0F4FA02D24FF4C9
:102A40007A70EEE7206A02F09AFA80B2E9E70000B5
:102A500000007A4400F1080141604FF0FF318160CD
:102A600000F10801C160016100210160704700218F
:102A70000161704742684A6093688B60936859604F
:102A80009160086103685B1C0360704710B50246E3
:102A90000B685C1C0CB9106907E002F1080000E04B
:102AA0004068446824689C42FAD944684C604C6889
:102AB000A160886041600A611468641C146010BDE4
:102AC00001460A69D1E901309860D1E901035860F3
:102AD0005068884201D18868506000200861106801
:102AE000401E10601068704770B505460E462C46B3
:102AF00001F09FFFD4E90F12206801FB0200606023
:102B00000020A0632068A060E06B401E226C21685A
:102B100000FB0210E060FF2084F8440084F84500C8
:102B20009EB9206908B9012000E00020A8B904F18D
:102B3000100001F0F5F880B14FF08050F9490860BD
:102B4000BFF34F8FBFF36F8F07E004F11000FFF763
:102B500081FF04F12400FFF77DFF01F079FF0120E0
:102B600070BD2DE9F04106460D4617469846069C75
:102B70000DB9246000E02760E6632564012120464A
:102B8000FFF7B2FFBDE8F0812DE9F84307460D4697
:102B900090460DB9002601E007FB05F606F1480056
:102BA00001F07FFE044644B104F1480943464A4619
:102BB000294638460094FFF7D4FF2046BDE8F88345
:102BC00070B5044601F035FF94F9455010E0606A95
:102BD00008B9012000E0002038B904F1240001F018
:102BE0009FF818B101F030F900E003E0681E45B22B
:102BF000002DECDC00BFFF2084F8450001F028FF29
:102C000001F017FF94F9445010E0206908B9012041
:102C100000E0002048B904F1100001F081F808B18B
:102C200001F012F9681E45B200E001E0002DECDC75
:102C300000BFFF2084F8440001F00AFF70BD70B5AA
:102C4000054601F0F6FEA86BE96B884201D101242C
:102C500000E0002401F0FCFE204670BD2DE9F041AB
:102C600004460F4615464FF00008A66B206C40B98D
:102C7000206860BB606801F072F9804600206060E7
:102C800025E07DB93946226CA06801F00FFF216C68
:102C9000A0680844A060D4E90110884217D32068D6
:102CA000A06014E03946226CE06801F0FFFE216C60
:102CB000E068401AE0602168E068884203D2216C35
:102CC0006068401AE060022D01D106B1761E701CCA
:102CD000A0634046BDE8F0812DE9FF4383B007467D
:102CE00088461D464FF000093C4600BF01F0A1FE9A
:102CF000A06BE16B884201D3022D28D12A464146C0
:102D00002046FFF7ABFF0646606A08B9012000E0E5
:102D1000002068B904F1240001F002F888B14FF0F6
:102D2000805080490860BFF34F8FBFF36F8F08E07A
:102D30003EB14FF080507B490860BFF34F8FBFF327
:102D40006F8F01F085FE012007B0BDE8F083059884
:102D500018B901F07DFE0020F6E7B9F1000F04D1AB
:102D600001A801F040F84FF0010901F071FE00F0F8
:102D700007FD01F05EFE94F94400401C10B90020EC
:102D800084F8440094F94500401C10B9002084F8F0
:102D9000450001F05DFE05A901A801F02BF8F0B98E
:102DA0002046FFF74CFFA0B104F11000059900F098
:102DB00083FF2046FFF704FF00F017FC002895D1A1
:102DC0004FF0805057490860BFF34F8FBFF36F8FAC
:102DD0008CE72046FFF7F4FE00F007FC86E720466C
:102DE000FFF7EEFE00F001FC0020ADE710B5044651
:102DF0004CB1002060602060E06000231A46194654
:102E00002046FFF769FF10BD2DE9F0410446012679
:102E10000027224600210120FFF7B6FE054628467E
:102E2000FFF7E4FF2846BDE8F08170B506460D4681
:102E3000022200213046FFF7A7FE044604B1A56335
:102E4000204670BD2DE9F05F05468A4616461F46AE
:102E50002C4600BFBF21EFF3118081F31188BFF32F
:102E60004F8FBFF36F8F00BF8146A06BE16B88422D
:102E700001D3022F20D194F945B03A46514620465D
:102E8000FFF7ECFE0BF1010070B9606A08B9012090
:102E900000E0002068B904F1240000F041FF40B1D7
:102EA0003EB10120306004E00BF1010040B284F833
:102EB00045004FF0010801E04FF0000800BF89F322
:102EC000118800BF4046BDE8F09F2DE9F047054658
:102ED0000E462C4600BFBF21EFF3118081F311880D
:102EE000BFF34F8FBFF36F8F00BF8046D4F8389089
:102EF000E06B48451FD994F945A009F10100A06392
:102F00000AF1010080B9606A08B9012000E00020E0
:102F100078B904F1240000F003FF50B14EB1012054
:102F2000306006E004ED00E00AF1010040B284F8F0
:102F30004500012700E0002700BF88F3118800BF8B
:102F40003846BDE8F08770B5054601F072FDA86B04
:102F500008B9012400E0002401F07AFD204670BD8C
:102F600070B504460D46206C70B1216CE0680844D1
:102F7000E0606168E068884201D32068E06028462C
:102F8000226CE16801F092FD70BD2DE9FF4782B02F
:102F9000054689461E464FF0000A2C4600BF01F048
:102FA00048FDD4F83880B8F1000F3BD0E7684946B7
:102FB0002046FFF7D5FFDEB9A8F10100A063206825
:102FC00010B901F015F86060206908B9012000E02F
:102FD000002008BB04F1100000F0A2FEE0B14FF0A9
:102FE00080509C490860BFF34F8FBFF36F8F13E091
:102FF000E760606A08B9012000E0002060B904F1D0
:10300000240000F08DFE38B14FF0805091490860E7
:10301000BFF34F8FBFF36F8F01F01AFD012006B091
:10302000BDE8F087049818B901F012FD0020F6E71A
:10303000BAF1000F04D1684600F0D5FE4FF0010A46
:1030400001F006FD00F09CFB01F0F3FC94F9440054
:10305000401C10B9002084F8440094F94500401C3D
:1030600010B9002084F8450001F0F2FC04A968467C
:1030700000F0C0FE40BB2046FFF765FFF0B12068BE
:1030800030B901F0D6FC606800F0F1FE01F0E0FC20
:1030900004F12400049900F00FFE2046FFF790FD94
:1030A00000F0A3FA00287FF47AAF4FF0805069490E
:1030B0000860BFF34F8FBFF36F8F70E72046FFF7B5
:1030C0007FFD00F092FA6AE72046FFF779FD00F0F5
:1030D0008CFA2046FFF737FF0028EED000209EE74D
:1030E0002DE9F05F05468A4616462C4600BFBF21F3
:1030F000EFF3118081F31188BFF34F8FBFF36F8F10
:1031000000BF8046D4F83890B9F1000F21D094F96F
:1031100044B051462046FFF723FFA9F10100A06308
:103120000BF1010070B9206908B9012000E000200E
:1031300068B904F1100000F0F3FD40B13EB1012088
:10314000306004E00BF1010040B284F84400012734
:1031500000E0002700BF88F3118800BF3846BDE8B3
:10316000F09F2DE9F047054689462C4600BFBF2158
:10317000EFF3118081F31188BFF34F8FBFF36F8F8F
:1031800000BF0746A06B48B1D4F80C8049462046E2
:10319000FFF7E6FEC4F80C80012600E0002600BF21
:1031A00087F3118800BF3046BDE8F08770B504464C
:1031B00001F03FFCA56B01F04BFC284670BD70B5DB
:1031C0000446254601F035FCD5E90E10461A01F0FB
:1031D0003FFC304670BD0146886B704770B50446B1
:1031E0002546284601F0BBFB70BD01468A6B0AB933
:1031F000012000E00020704701468A6BCB6B9A42A9
:1032000001D1012000E0002070472DE9F041054682
:103210000E4617462C4601F00CFC94F94400401C65
:1032200010B9002084F8440094F94500401C10B9FE
:10323000002084F8450001F00BFCA06B28B93A4649
:10324000314604F1240000F059FD2046FFF7B8FC98
:10325000BDE8F08104ED00E010B5002407E004EBC8
:103260008401FE4A02EB8100FFF7F4FB641C052C8D
:10327000F5D3FB48FFF7EEFBFA48FFF7EBFBFA4804
:10328000FFF7E8FBF948FFF7E5FBF948FFF7E2FB3A
:10329000F348F8490860F348F749086010BD10B5D5
:1032A000044601F0C6FBF5480068401CF34908607D
:1032B000F348006840B9F2480460084600680128F5
:1032C0000DD1FFF7C9FF0AE0EE48006838B9EC48B5
:1032D0000068C06AE16A884201D8E9480460EA48A7
:1032E0000068401CE849086094F82C1001208840D0
:1032F000E64909680843E5490860E16A01EB810194
:10330000D64A02EB8100211DFFF7B4FB01F0A0FBC0
:10331000DC48006868B1DA480068C06AE16A88423F
:1033200007D24FF08050DA490860BFF34F8FBFF3E8
:103330006F8F10BD2DE9FF5F80460F469146DDE996
:103340000E6A109CA9F10100216B01EB800B2BF0A0
:10335000070B002507E0795D04F134004155785DE5
:1033600000B902E06D1C102DF5D300BF00214320F1
:103370000155052E00D30426E66266640020A06491
:10338000201DFFF774FB04F11800FFF770FB2461A8
:10339000C6F10500A06164620020E06484F850007A
:1033A00041465846039A01F018FB2060BAF1000F1D
:1033B00001D0CAF80040BDE8FF9F2DE9FF4F85B05E
:1033C000804689461746DDE912ABB80001F069FA7C
:1033D000064656B1542001F064FA04460CB1266347
:1033E00004E0304601F0BBFA00E000247CB100208C
:1033F000CDE900ABCDE902403A4649464046089B3C
:10340000FFF798FF2046FFF74AFF012501E04FF044
:10341000FF35284609B0BDE8F08F9649096809686C
:1034200009B9012100E0002121B14FF0FF31994A93
:10343000116006E08F490968C968C868954A416803
:103440001160704710B50446206B01F088FA2046E1
:1034500001F085FA10BD70B5054601F0EAFA15B91C
:103460008748006800E028460446201DFFF728FB37
:1034700078B9E06A00EB8000784951F8200040B943
:1034800094F82C10012088408049096881437F48C6
:103490000160A06A18B104F11800FFF711FB7A4827
:1034A0000068401C7849086075480068844209D16A
:1034B000211D6E48FFF7DEFA77480068401C764908
:1034C000086009E06D480068401E6C4908602046AD
:1034D000FFF7B8FFFFF7A1FF01F0BAFA69480068EB
:1034E00058B167480068844207D14FF0805068495E
:1034F0000860BFF34F8FBFF36F8F70BD2DE9F041B0
:10350000002766480068002863D165480068451CAC
:10351000634805608DB95748D0F800805648006868
:10352000544908605448C0F800805E480068401C58
:103530005C490860FFF771FF00BF5648006885428C
:103540003BD300BF4B480068006808B9012000E089
:10355000002020B14FF0FF304E4908602CE0454874
:103560000068C068C4686668B54202D2494806600F
:1035700022E0201DFFF7A4FAA06A18B104F1180098
:10358000FFF79EFA94F82C10012088403F49096803
:1035900008433E490860E16A01EB81012F4A02EBD2
:1035A0008100211DFFF766FA3549E06A0968C96A9A
:1035B0008842C7D30127C5E700BF31480068C06A09
:1035C00000EB8000254951F82000012800D901278F
:1035D00004E035480068401C3349086033480068FF
:1035E00000B101273846BDE8F08170B500240026FF
:1035F00001F01FFA29480068401E28490860084663
:10360000006800287AD11D480068002876D024E0A0
:103610001548C068C46804F11800FFF751FA201D6E
:10362000FFF74EFA94F82C100120884017490968DA
:10363000084316490860E16A01EB8101074A02EB81
:103640008100211DFFF716FA0D49E06A0968C96A71
:10365000884202D301201549086029E0CC010020EE
:103660003002002044020020580200206C0200209A
:1036700080020020780000207C00002084000020D0
:103680007400002090000020A00000208C0000208A
:1036900004ED00E0A400002080000020AC00002029
:1036A000880000209C00002094000020980000204A
:1036B000FE48006808B9012000E000200028A7D0DB
:1036C0000CB1FFF7AAFEFA48056865B100BFFFF725
:1036D00015FF10B10120F74908606D1E002DF6D1CD
:1036E0000020F3490860F348006838B1012630072C
:1036F000F1490860BFF34F8FBFF36F8F01F0A8F956
:10370000304670BD2DE9F04105460E46EB4807688E
:10371000EB480068001DFFF7D3F950B9E84800688E
:1037200090F82C1001208840E64909688143E5485B
:103730000160681C38B936B1E1480168091DE248EA
:10374000FFF798F91AE07C19DD4800684460BC4234
:1037500007D2DB480168091DDC480068FFF796F9CD
:103760000CE0D7480168091DD9480068FFF78EF9B9
:10377000D8480068844201D2D6480460BDE8F08190
:10378000D5480068401CD449086070472DE9F047CF
:10379000044688464FF00009FFF7F2FFC748066865
:1037A000206800EB08052068B04207D92068A842CD
:1037B0000BD9B54209D94FF0010906E02068A842AB
:1037C00001D8B54201D94FF001092560B9F1000FC8
:1037D00003D0A81B0021FFF795FFFFF706FF074660
:1037E0003FB94FF08050B4490860BFF34F8FBFF32B
:1037F0006F8FBDE8F08770B50446002544B1FFF730
:10380000BFFF00212046FFF77DFFFFF7EEFE0546D4
:103810003DB94FF08050A8490860BFF34F8FBFF308
:103820006F8F70BD70B5044601F003F914B9A44858
:10383000006800E020460646F56A01F009F92846CE
:1038400070BD70B5024600BFBF25EFF3118485F34C
:103850001188BFF34F8FBFF36F8F00BF214612B99E
:10386000974C246800E014462346D86A00BF81F3D1
:10387000118800BF70BD2DE9F04780460D464FF01E
:103880000009052D00D3042501F0D3F8B8F1000F8D
:1038900002D18B48006800E040460446666CAE42A8
:1038A00056D0B5420BD98648006884420DD0844872
:1038B0000068C06AA84208D84FF0010905E08048B6
:1038C0000068844201D14FF00109E76AE16A606C47
:1038D000884200D1E5626564A06900F0004010B93B
:1038E000C5F10500A06107EB87017C4A02EB81016D
:1038F0006069884201D1012000E00020E0B1201D74
:10390000FFF7DEF830B90120B8406E4909688143FD
:103910006C48016094F82C100120884069490968BE
:10392000084368490860E16A01EB81016B4A02EBD8
:103930008100211DFFF79EF8B9F1000F07D04FF06D
:1039400080505D490860BFF34F8FBFF36F8F00BF9A
:1039500001F07EF8BDE8F0875F48006818B10120EB
:10396000544908601DE0002052490860554800682D
:10397000B0FA80F0C0F11F0101EB8102574B03EB5D
:10398000820042685268426000F108024368934234
:1039900002D14268526842604268D268484B1A605D
:1039A00000BF704770B5054601F043F815B94448AB
:1039B000006800E028460446201DFFF781F878B92A
:1039C000E06A00EB8000454951F8200040B994F8C6
:1039D0002C10012088403B49096881433948016027
:1039E000A06A18B104F11800FFF76AF8211D3648E3
:1039F000FFF740F801F02CF83948006828B101F0D1
:103A000018F8FFF70AFD01F023F82D4800688442FA
:103A100017D13348006840B14FF080502649086004
:103A2000BFF34F8FBFF36F8F0BE0274800682D491E
:103A30000968884203D100202149086001E0FFF7AE
:103A40008BFF70BD10B5014600200A461E4C53691D
:103A5000A34201D1012300E0002373B1134C936A08
:103A6000A34201D1012300E0002333B9936A0BB9CB
:103A7000012300E0002303B1012010BD70B505460D
:103A80002C468CB30E48006884424BD000F0D1FF26
:103A90002046FFF7D7FF40B3201DFFF711F894F839
:103AA0002C1001208840074909681FE058020020B7
:103AB000940000209800002004ED00E08800002021
:103AC000740000208C000020800200207C00002078
:103AD00078000020A4000020AC000020CC010020D1
:103AE00090000020840000201CE019E00843FE49FB
:103AF0000860E16A01EB8101FC4A02EB8100211DB3
:103B0000FEF7B8FFFA49E06A0968C96A884207D334
:103B10004FF08050F7490860BFF34F8FBFF36F8FAE
:103B200000F096FF70BD2DE9F041064600273446AF
:103B300000BFBF21EFF3118081F31188BFF34F8FD6
:103B4000BFF36F8F00BF05462046FFF77BFF20B312
:103B5000E9480068E0B9E649E06A0968C96A88424C
:103B600000D30127201DFEF7ABFF94F82C10012095
:103B70008840DD4909680843DB490860E16A01EBD8
:103B80008101DA4A02EB8100211DFEF773FF04E098
:103B900004F11801D948FEF76DFF00BF85F31188C5
:103BA00000BF3846BDE8F08170B523E0FFF7E8FDBF
:103BB000D348006808B9012000E000200546FFF75F
:103BC00014FDBDB900F035FFCD48C068C468201DA4
:103BD000FEF776FFCB480068401ECA490860CA4815
:103BE0000068401EC849086000F032FF2046FFF719
:103BF00029FC00BFC44800680028D7D170BD00BFB1
:103C0000FFF7D2FFB94800680128F9D94FF080507A
:103C1000B8490860BFF34F8FBFF36F8FF0E71CB553
:103C2000BA4800210B468022CDE90010B8A1BA485D
:103C3000FFF7C3FB0446012C02D100F044FD04460B
:103C4000012C14D100BFBF2080F31188BFF34F8F28
:103C5000BFF36F8F00BF4FF0FF30B0490860012005
:103C6000AF4908600020AF49086000F0CCFE1CBDE1
:103C700010B500BFBF2080F31188BFF34F8FBFF393
:103C80006F8F00BF0020A649086000F0D1FE10BD74
:103C9000A449086870470021A24A106870479948F3
:103CA00000687047014611B99148006800E0084675
:103CB000024602F13400704770B505460C468C4848
:103CC000016818312846FEF7E1FE01212046FFF782
:103CD00019FD70BD70B506460C46154644F000400F
:103CE0008349096888618248016818313046FEF7C7
:103CF000C1FE01212846FFF705FD70BD70B50646DF
:103D00000D4614467A48016818313046FEF7B2FE77
:103D10000CB14FF0FF3521462846FFF7F3FC70BD8C
:103D200070B50646F068C46804F11800FEF7C8FED6
:103D300071480068A8B9201DFEF7C2FE94F82C1047
:103D40000120884068490968084367490860E16ABA
:103D500001EB8101654A02EB8100211DFEF78AFE1D
:103D600004E004F118016548FEF784FE6049E06A4A
:103D70000968C96A884204D9012501206A49086096
:103D800000E00025284670BD2DE9F04105460F46AC
:103D900047F000402860EC682846FEF791FE201DA1
:103DA000FEF78EFE94F82C10012088404E490968D9
:103DB00008434D490860E16A01EB81014B4A02EB7F
:103DC0008100211DFEF756FE4949E06A0968C96A6B
:103DD000884204D9012601205349086000E00026EA
:103DE0003046BDE8F0815149096801604D490968D4
:103DF0004160704770B504460D4600F01AFE494810
:103E000002682868401C08B9002619E04749206864
:103E10000968884204D06068904201D801260FE00A
:103E20006068101A2968884209D228686168511AA6
:103E3000401A28602046FFF7D6FF002600E0012642
:103E400000F006FE304670BD01203749086070471B
:103E50002749086870473249096809B9012005E017
:103E60002549096809B9022000E00020704770B5B3
:103E700005462C46002D71D01D49E06A0968C96AC3
:103E800088426BD2A06900F0004028B91848006849
:103E9000C06AC0F10500A061E16A01EB8101134A2B
:103EA00002EB81016069884201D1012000E000201D
:103EB000F0B3201DFEF704FE78B9E06A00EB800045
:103EC0000A4951F8200040B994F82C10012088408C
:103ED0000549096881430448016005480068C06AD3
:103EE000E06294F82C1024E08C000020CC0100202B
:103EF0007400002004ED00E0AC0000205802002017
:103F00006C0200208400002080000020A800002017
:103F100049444C4500000000FF3B0008A40000207D
:103F20009000002088000020980000209C000020C5
:103F300010E001208840FD4909680843FB490860FA
:103F4000E16A01EB8101FA4A02EB8100211DFEF7D3
:103F500091FD03E0F7480068C06AE06270BD70B58B
:103F600005462C460026ADB3A06C401EA064616CD3
:103F7000E06A88422ED0A06C60BB201DFEF7A0FD39
:103F800078B9E06A00EB8000E94951F8200040B9B7
:103F900094F82C1001208840E44909688143E348E3
:103FA0000160606CE062E06AC0F10500A06194F815
:103FB0002C1001208840DD4909680843DB4908606E
:103FC000E16A01EB8101DA4A02EB8100211DFEF773
:103FD00051FD0126304670BDD64909688869D5492A
:103FE0000968C96AC1F10501D24A12689161704736
:103FF000D048006830B1CF49096801F14800896CA8
:10400000491C0160CB480068704770B506460D46F4
:1040100000F00FFDC7480068C06C88B90120C54991
:10402000096881F850005DB101212846FFF76AFB5D
:104030004FF08050C0490860BFF34F8FBFF36F8FC0
:1040400000F006FD00F0F5FCBA480068C46C4CB105
:1040500026B10020B7490968C86403E0601EB5496D
:104060000968C8640020B349096881F8500000F06D
:10407000EFFC204670BD2DE9F04107468846144606
:104080001D4600F0D6FCAB48006890F850000228AE
:1040900018D0A849096801F14C00C96CB943016006
:1040A0000120A449096881F850005DB1012128462A
:1040B000FFF728FB4FF080509F490860BFF34F8FF8
:1040C000BFF36F8F00F0C4FC00F0B3FC1CB1994843
:1040D0000068C06C20609748006890F85000012884
:1040E00001D1002608E09349096801F14C00C96C30
:1040F00021EA08010160012600208E49096881F843
:10410000500000F0A5FC3046BDE8F0812DE9F047F5
:1041100081460D4616461F464FF0010A4C4600F0F8
:1041200088FC0FB1E06C386094F85080022084F86D
:104130005000052E17D2DFE806F01503070B0D001F
:10414000E06C2843E0640EE0E06C401CE0640AE0B0
:10415000E56408E0B8F1020F01D0E56401E04FF03A
:10416000000A00E000BF00BFB8F1010F22D1201DFE
:10417000FEF7A6FC94F82C10012088406B490968D2
:1041800008436A490860E16A01EB8101684A02EB71
:104190008100211DFEF76EFC6649E06A0968C96A64
:1041A000884207D94FF0805063490860BFF34F8FB2
:1041B000BFF36F8F00F04CFC5046BDE8F0872DE94F
:1041C000F84F82460D4616461F46DDF828B00120FE
:1041D0000090544600BFBF21EFF3118081F3118896
:1041E000BFF34F8FBFF36F8F00BF81460FB1E06CFD
:1041F000386094F85080022084F85000052E17D2C1
:10420000DFE806F01503070B0D00E06C2843E064BF
:104210000EE0E06C401CE0640AE0E56408E0B8F100
:10422000020F01D0E56401E00020009000E000BF33
:1042300000BFB8F1010F2DD140480068A8B9201D7A
:10424000FEF73EFC94F82C1001208840374909689D
:10425000084336490860E16A01EB8101344A02EB08
:104260008100211DFEF706FC04E004F1180134482A
:10427000FEF700FC2F49E06A0968C96A884209D93B
:10428000BBF1000F03D00120CBF8000002E00120B9
:104290002C49086000BF89F3118800BF0098BDE871
:1042A000F88F2DE9F04105460E462C4600BFBF2190
:1042B000EFF3118081F31188BFF34F8FBFF36F8F3E
:1042C00000BF074694F85080022084F85000E06C4C
:1042D000401CE064B8F1010F39D118480068A8B952
:1042E000201DFEF7EDFB94F82C10012088400F49AB
:1042F000096808430D490860E16A01EB81010C4A35
:1043000002EB8100211DFEF7B5FB04E004F118016A
:104310000B48FEF7AFFB0749E06A0968C96A8842A3
:1043200015D98EB10120306011E000008C00002012
:10433000CC0100207400002004ED00E0AC0000205F
:10434000580200209800002001201049086000BF9A
:1043500087F3118800BFBDE8F08170B5054615B937
:104360000B48006800E02846064600F062FB96F81D
:104370005000022804D1002086F85000012400E0FB
:10438000002400F065FB204670BD0000980000206E
:10439000740000202DE9F04104460D4616461F46E4
:1043A0004FF0000865602461B5420CD8F01BA1698C
:1043B000884202D34FF0010811E0211DF84800683F
:1043C000FEF764FB0BE0BE4204D2BD4202D34FF0C5
:1043D000010804E0211DF3480068FEF757FB404642
:1043E000BDE8F0812DE9FE4305460C4616461F4602
:1043F000DDF828804FF00009EB48006810B3009406
:1044000001960295062C15DAFFF725FD022808D142
:10441000002342466946E4480068FEF75DFC814699
:1044200010E000231A466946DF480068FEF754FC96
:10443000814607E000233A466946DB480068FEF7FC
:1044400001FD81464846BDE8FE832DE9F84326E09C
:10445000D4480068C0680568D2480068C068C4686D
:10446000201DFEF72DFB2046616A8847E069012880
:1044700015D1A0694619AE4207D966602461211D95
:10448000C8480068FEF702FB09E0002003462A4600
:10449000014600902046FFF7A5FF804600BFC148B7
:1044A0000068006808B9012000E000200028CFD093
:1044B000BC480768BA480068BA490860B84807604D
:1044C000BDE8F88370B50446FFF7E2FB0546B74840
:1044D0000068854204D2FFF7B8FF0120206001E0A8
:1044E00000202060B1480560284670BD70B586B0D8
:1044F0004DE0039800284ADB059C606908B901205B
:1045000000E0002010B9201DFEF7DAFA02A8FFF73C
:10451000D9FF054603980A2837D2DFE800F00905DD
:10452000072527320608262800BF00BF00BF00BFAE
:104530000498A269811803462A462046FFF72AFFFD
:1045400088B12046616A8847E06901280BD10020C4
:1045500000900498A1694218002319462046FFF7ED
:1045600041FF064600BF11E000BF0FE000BF049806
:10457000A061A06941192B462A462046FFF70AFF91
:1045800004E0204600F0EBF900E000BF00BF00238C
:104590001A4603A984480068FEF7F7FC0028A8D152
:1045A00006B070BDF8B505460E467E480068C06886
:1045B000C468201DFEF784FAE069012811D1A069C2
:1045C00041192B4632462046FFF7E4FE48B1002051
:1045D00003462A46014600902046FFF703FF0746A0
:1045E00000BF2046616A8847F8BDF8B505460C460D
:1045F000FFF7C6F86846FFF765FF0646009820BB40
:1046000044B9B54206D8FEF7F0FF31462846FFF719
:10461000C9FF1CE03CB162480068006808B901208D
:1046200000E000200446A91B22465F480068FEF710
:10463000ECFDFEF7DAFF50B94FF080505C4908609E
:10464000BFF34F8FBFF36F8F01E0FEF7CEFFF8BDD2
:104650000146544A126812680AB9012200E0002299
:104660000A600A6822B94F4A1268D268106800E0EE
:104670000020704708B500BF6846FFF7E9FF044611
:1046800020460099FFF7B1FFFFF730FFF4E710B5C0
:1046900000F0CFF94448006890B94648FEF7DAF9CF
:1046A0004548FEF7D7F943483E49086042483C492F
:1046B000086000220C210A20FEF766FA3A490860D9
:1046C00000F0C6F910BD1CB50024FFF7E0FF364826
:1046D000006850B1394802210023CA01CDE9001019
:1046E00037A13948FEF769FE044620461CBD2DE976
:1046F000F04705460E4617469846DDE908945CB13A
:10470000FFF7C5FF2560A661E761C4F82080C4F803
:104710002490201DFEF7ABF9BDE8F0872DE9FC479A
:1047200005460E4617469846DDF82890282000F0EA
:10473000B8F804463CB143463A4631462846CDE9EE
:104740000094FFF7D4FF2046BDE8FC871B480068B3
:10475000704701460A469069704701460A4650680C
:10476000704701460A461068704770B504462646F1
:1047700000F05FF9706908B9012000E0002080F0C6
:10478000010500F065F9284670BD70B5044626465F
:1047900000F04FF9356A00F05BF9284670BD000063
:1047A000B4000020B0000020B8000020C0000020AD
:1047B00004ED00E094020020A8020020BC000020CC
:1047C000546D7220537663007546000870B5044638
:1047D0000D46264600F02DF9356200F039F970BD1E
:1047E00010B50146714800E0006803688B42FBD3B6
:1047F0000246436813448B4204D143684C68234407
:10480000436001460A464B6813440468A34211D131
:10481000674C03682468A34208D04B680468646846
:1048200023444B6003681B680B6005E0604B1B680A
:104830000B6001E003680B60884200D0016010BD8E
:1048400030B54FF420535B4800F007042CB1C01D75
:1048500020F00700574C041B1B1B0246534C2260E0
:104860000024524D6C60D018083820F00700504CDE
:10487000206000244E4D2D686C604D4D2D682C60DD
:104880001146441A4C604A4C24680C604A4D4C68EE
:104890002C604A4D4C682C604FF00044484D2C6011
:1048A00030BD2DE9F04105464FF00008FEF768FFE6
:1048B0003F48006808B9FFF7C3FF41480068284037
:1048C000002847D145B1083505F0070020B105F0B3
:1048D0000700C0F108000544002D3BD037480068B0
:1048E000854237D8314E3046046801E026462468B8
:1048F0006068A84202D220680028F7D12C480068DE
:10490000844227D0306800F1080820683060606871
:10491000401B102807D967196068401B78606560E4
:104920003846FFF75DFF254960680968081A234982
:1049300008600846006820490968884203D21F4879
:1049400000681D4908601E49606809680843606086
:1049500000202060FEF749FE4046BDE8F08170B5BA
:1049600006463546D6B1083D2C46154960680968AB
:10497000084098B1206888B911496068096888437F
:104980006060FEF7FDFE0D496068096808440B4948
:1049900008602046FFF724FFFEF727FE70BD07489A
:1049A000006870470448006870477047C4000020E2
:1049B000CC000020BC020020D4000020D000002049
:1049C000D800002000BFBF2080F31188BFF34F8FB5
:1049D000BFF36F8F00BF00BFFEE7001F4FF0807373
:1049E0000360001F21F001030360001F2B4B0360D5
:1049F000143802602038704729484FF0E0214861A0
:104A000007200861704710B52648006840F47F0011
:104A1000244908600846006840F07F400860FFF7BE
:104A2000EBFF002020490860FBF77CFB002010BD55
:104A3000704700BFBF2080F31188BFF34F8FBFF3D3
:104A40006F8F00BF18480068401C17490860704706
:104A500015480068401E144908600846006820B9DF
:104A6000002080F3118800BF00BF704710B500BF61
:104A7000BF2080F31188BFF34F8FBFF36F8F00BF4C
:104A8000FEF73CFD20B14FF0805006491C3908600C
:104A900000BF002080F3118800BF10BDC549000889
:104AA0003F19010020ED00E0DC00002040EA010396
:104AB0009B0703D009E008C9121F08C0042AFAD2D4
:104AC00003E011F8013B00F8013B521EF9D2704798
:104AD000F0B480EA0102D40F4200B2EB410F02D2DF
:104AE0000246084611464A0042D0C30DDDB2C1F36A
:104AF000C752AD1A202D35DAC1F3160141F4000278
:104B000004B15242C5F1200602FA06F12A411044CE
:104B1000B3EBD05F23D0C4B1012DA0EBC35009DCAF
:104B2000F0BC4FF0004202EAC352DBB200F50000D5
:104B300000F0BCBA400000F1807000EBC350A0F15F
:104B4000807040EAD170490009E0490841EAC0712B
:104B5000A0EBC35000F50000400800EBC350F0BCD0
:104B600000F09BBA6142012202EB4101001BF6E713
:104B7000F0BC704781F00041AAE780F00040A7E751
:104B800080EA010210B502F00043400022D04A0042
:104B90001FD0010E01EB1261C0F35600C2F35602A2
:104BA00040F4000042F40002A0FB022000047F3920
:104BB000140400D0401C50EA124001D44000491EA9
:104BC000C2B20C0604EBD010401C4008802A02D070
:104BD00003E0002010BD20F00100002900DA0020D1
:104BE000184310BD2DE9FE4F804681EA0300C00F37
:104BF0000C46009021F0004123F00045B8EB020084
:104C0000A94105D24046214690461C460B46024625
:104C100023F00040104347D0270DC7F30A00C3F329
:104C20000A510290401A019040286BDAC3F3130036
:104C300040F4801B0098924620B10023D2EB030A77
:104C400063EB0B0B01985946C0F14002504600F04F
:104C5000F3F906460D4650465946019A00F00BFA04
:104C600010EB08006141002487EA115284EAE773DF
:104C70001A4340D0009A62B3019A012A4FEA0752C0
:104C800015DC001B61EB02014FF0004202EA075203
:104C9000CDE90042001C41F5801132462B4600F060
:104CA00042FA03B0BDE8F08F40462146F9E7001B09
:104CB00061EB0201001C41F5801300185B412018D4
:104CC000A2F5001747EB030140EAD570B6196D4114
:104CD00011E06D084FEA360645EAC0754FEA075203
:104CE000001B61EB0201001C41F5801149084FEAED
:104CF00030000019514132462B4603B0BDE8F04F59
:104D000000F002BA0098012240000023D0EB02021A
:104D100063EBE073009821464FEAE074B8EB0000C3
:104D200061EB0401E9E783F000435BE781F00041B8
:104D300058E72DE9FE4F81EA030404F0004421F016
:104D4000004100944FF0000B23F0004350EA0104AF
:104D50005ED052EA03045BD0C3F30A54C1F30A5590
:104D60002C44A4F2F3340194A0FB0254C1F31301C8
:104D700041F48011C3F3130343F4801301FB024495
:104D800000FB034E840A970A44EA815447EA83579A
:104D9000A4FB076802958D0A05FB07854FEA932C53
:104DA00004FB0C542705029D4FEA065847EA1637C4
:104DB000B5EB08056EEB070C870E920E47EA8117DC
:104DC00042EA8312A7FB0201B6EB0B0164EB00047D
:104DD0002B0D43EA0C335E1844EB1C50DA46514667
:104DE000E7FB0201C5F313044FEA0B3343EA145304
:104DF0004FEA0432019C43EA0603A4F10C04029436
:104E0000009CCDE900B400F08EF903B0BDE8F08F4E
:104E100000200146F9E72DE9F04D81EA030404F092
:104E2000004B21F0004514464FF0000A23F00041EA
:104E300050EA050220D054EA01021DD0C5F30A57FA
:104E40000246C5F31303C1F31300C1F30A5640F43D
:104E5000801543F48013A7EB0608101BD64608F212
:104E6000FD3873EB050002D308F1010801E0921848
:104E70005B41B8F1000F03DA00200146BDE8F08D78
:104E800000204FF48011064684460EE0171B73EB9A
:104E9000050705D3121B63EB050306434CEA010C1F
:104EA00049084FEA300092185B4150EA0107EDD102
:104EB00052EA030012D082EA040083EA05010843A3
:104EC00005D0101BAB4106D20122002306E00022D0
:104ED0004FF0004302E06FF0010253101AEB06009E
:104EE0004CEB085110EB0A0041EB0B01BDE8F04D13
:104EF00000F00AB9C10F80EAE0700844CA0796239F
:104F0000002100F0D3B896230022114600F0CEB85D
:104F10000EB5C10F80EAE0700844CA07002140F2D4
:104F200033438DE80E000A460B4600F0FCF803B050
:104F300000BD0EB540F2334102910021CDE90011D0
:104F40000A460B4600F0EFF803B000BD00F0004247
:104F500020F00040C10DC0F3160040F400007F298E
:104F600001DA00207047962903DCC1F19601C840A0
:104F700001E096398840002AF4D04042704720F082
:104F80000040C10DC0F3160040F400007F2901DA93
:104F900000207047962903DCC1F19601C840704794
:104FA000963988407047C1F30A5210B5C1F3130116
:104FB00040F2FF3341F480119A4201DA002010BD23
:104FC00040F233439A42A2F2334203DC524200F0F1
:104FD00042F810BD904010BD01F0004330B421F004
:104FE000004150EA010206D00A0DA2F56072C1F339
:104FF0001301002A02DC30BC00207047440F44EA51
:10500000C104C100E01830BC00EBC25000F045B84C
:10501000002801DBC0F10040002901DBC1F10041A3
:1050200081427047002801DBC0F10040002901DB0C
:10503000C1F1004188427047202A04DB203A00FA7F
:1050400002F1002070479140C2F1200320FA03F3DF
:10505000194390407047202A04DB203A21FA02F0DD
:105060000021704721FA02F3D040C2F120029140A2
:10507000084319467047202A06DBCB17203A41FA2D
:1050800002F043EAE07306E041FA02F3D040C2F1D5
:10509000200291400843194670470029A8BF704775
:1050A000401C490008BF20F00100704710B4B0FA5E
:1050B00080FC00FA0CF050EA010404BF10BC7047F9
:1050C00049B1CCF1200421FA04F411FA0CF118BF13
:1050D000012121430843A3EB0C01CB1D4FEA0061E2
:1050E0004FEA102042BF002010BC704700EBC350B5
:1050F00010440029A4BF10BC7047401C490008BFE1
:1051000020F0010010BC704710B5141E73F10004AC
:1051100008DA401C41F1000192185B411A4301D1A9
:1051200020F0010010BD2DE9F04D92469B4611B1D3
:10513000B1FA81F202E0B0FA80F220329046FFF735
:105140007BFF04460F4640EA0A0041EA0B01534642
:105150005A46084313D0114653EA010019D0C8F14A
:1051600040025046FFF777FF05460E465046594627
:105170004246FFF761FF084305D0012004E02046C6
:105180003946BDE8F08D0020054346EAE0762C4321
:1051900037430A986305E40AA0EB08000022FD0AE1
:1051A00044EA47540A3002D500200146E9E70105E8
:1051B00010196941DDE9084500196941BDE8F04D64
:1051C000A2E70000064C074D06E0E06840F001034E
:1051D00094E8070098471034AC42F6D3FAF78AFFF8
:1051E000CC590008EC59000829B1064AD26902439B
:1051F000044BDA6104E0034AD2698243014BDA616D
:10520000704700000010024029B1064A12690243AB
:10521000044B1A6104E0034A12698243014B1A618C
:10522000704700000010024029B1064A926902430B
:10523000044B9A6104E0034A92698243014B9A61EC
:10524000704700000010024029B1064AD2680243AC
:10525000044BDA6004E0034AD2688243014BDA600F
:10526000704700000010024030B5002100220024E9
:1052700000232D4D6D6805F00C0121B1042905D0E6
:10528000082923D105E0294D056022E0274D05605E
:105290001FE0254D6D6805F47012234D6D6805F40F
:1052A0008034022505EB92421CB9214D554305601F
:1052B0000BE01D4D6D6805F400351DB11C4D5543C7
:1052C000056002E0194D5543056002E0174D056089
:1052D00000BF00BF144D6D6805F0F0010909154DC0
:1052E0006B5C0568DD4045600F4D6D6805F4E0615D
:1052F000090A104D6B5C4568DD4085600A4D6D689C
:1053000005F46051C90A0B4D6B5C4568DD40C56012
:10531000054D6D6805F44041890B074D6B5CC56810
:10532000B5FBF3F5056130BD0010024000127A00B4
:1053300000093D00140000202400002002E008C8FD
:10534000121F08C1002AFAD170477047002001E0FF
:1053500001C1121F002AFBD17047000000000000AD
:1053600000000000000000000000000000F8000045
:105370000000000000333000000000100C06100C8C
:105380000600000000000000000040C07840C07827
:105390004000043F04043F040400007088FC08300F
:1053A0000000001820FF211E0000F008F000E018A7
:1053B000000000211C031E211E0000F00888700060
:1053C00000001E2123241927211010160E000000B2
:1053D00000000000000000000000000000E01804D1
:1053E0000200000000071820400000020418E0003E
:1053F00000000040201807000000404080F080407E
:1054000040000202010F01020200000000F0000053
:1054100000000101011F0101010000000000000067
:10542000000080B0700000000000000000000000DC
:105430000000000101010101010100000000000065
:10544000000000303000000000000000000080601C
:105450001804006018060100000000E010080810A1
:10546000E000000F102020100F00001010F80000C6
:1054700000000020203F202000000070080808885D
:10548000700000302824222130000030088888482D
:1054900030000018202020110E000000C02010F85D
:1054A000000000070424243F240000F8088888082E
:1054B00008000019212020110E0000E01088881833
:1054C0000000000F112020110E0000380808C83815
:1054D00008000000003F00000000007088080888F5
:1054E0007000001C222121221C0000E0100808107E
:1054F000E0000000312222110F00000000C0C000B7
:1055000000000000003030000000000000800000BB
:1055100000000000806000000000000080402010BB
:1055200008000001020408102000404040404040B4
:105530004000040404040404040000081020408017
:10554000000000201008040201000070480808084C
:10555000F0000000003036010000C030C828E8101C
:10556000E0000718272423140B000000C038E000D7
:105570000000203C23020227382008F88888887021
:105580000000203F202020110E00C030080808082D
:105590003800071820202010080008F80808081014
:1055A000E000203F202020100F0008F88888E8083D
:1055B0001000203F20202320180008F88888E808E1
:1055C0001000203F200003000000C0300808083809
:1055D000000007182020221E020008F8080000081A
:1055E000F808203F210101213F20000808F80808A1
:1055F00000000020203F2020000000000808F808DC
:105600000800C08080807F00000008F888C028184B
:105610000800203F20012638200008F8080000007C
:105620000000203F20202020300008F8F800F8F883
:105630000800203F003F003F200008F830C000086D
:10564000F808203F200007183F00E0100808081065
:10565000E0000F10202020100F0008F808080808AC
:10566000F000203F210101010000E01008080810AF
:10567000E0000F18242438504F0008F888888888E4
:105680007000203F2000030C3020007088080808BC
:1056900038000038202121221C00180808F80808CA
:1056A00018000000203F2000000008F80800000853
:1056B000F808001F202020201F000878880000C85C
:1056C0003808000007380E010000F80800F800084C
:1056D000F800033C0700073C030008186880806856
:1056E000180820302C03032C30200838C800C83894
:1056F00008000000203F2000000010080808C838FB
:1057000008002038262120201800000000FE020298
:1057100002000000007F40404000000C30C000004C
:105720000000000000010638C00000020202FE0076
:105730000000004040407F00000000000402020220
:105740000400000000000000000000000000000055
:105750000000808080808080808000020204000041
:105760000000000000000000000000008080808039
:1057700000000019242222223F2008F80080800027
:105780000000003F112020110E00000000808080EA
:105790000000000E112020201100000000808088F1
:1057A000F800000E112020103F2000008080808033
:1057B0000000001F222222221300008080F088882F
:1057C00088180020203F202000000000808080807A
:1057D0008000006B94949493600008F800808080AF
:1057E0000000203F210000203F200080989800000A
:1057F00000000020203F202000000000008098983A
:10580000000000C08080807F000008F800008080D9
:105810008000203F24022D302000000808F80000FE
:1058200000000020203F20200000808080808080B9
:105830008000203F20003F20003F8080008080804B
:105840000000203F210000203F2000008080808059
:105850000000001F202020201F008080008080008A
:10586000000080FFA12020110E0000000080808039
:105870008000000E112020A0FF80808080008080AA
:10588000800020203F2120000100000080808080D7
:1058900080000033242424241900008080E08080CC
:1058A00000000000001F2020000080800000008019
:1058B0008000001F202020103F208080800000807A
:1058C000808000010E30080601008080008000808A
:1058D00080800F300C030C300F000080800080802F
:1058E00080000020312E0E3120008080800000805A
:1058F000808080818E70180601000080808080800A
:1059000080000021302C2221300000000000807C2B
:10591000020200000000003F404000000000FF00C5
:10592000000000000000FF0000000002027C800078
:1059300000000040403F000000000006010102029C
:10594000040400000000000000001060028C000051
:10595000FE9292929292FE00000004047E01407E2C
:1059600042427E427E42427E40001060028C00FE37
:10597000929292929292FE00000004047E014448AA
:10598000507F40407F50484440000000FC242424C5
:10599000FC252624FC242424040040308F80844CE1
:1059A00055252525554C8080800000383800C030B2
:1059B0000808080838000000000000000000071870
:1059C000202020100800000000000000EC59000812
:1059D00000000020E00000003C530008CC5A000802
:1059E000E0000020E02D00004C53000800A24A0413
:1059F000000000000000000001020304060708097F
:105A00000000000001020304010203040607080964
:105A10000204060800000000000000000000000072
:105A20000000000000000000000000000000000076
:105A30000000000000000000000000000000000066
:105A4000000000000000000000006842000000416B
:105A50000000C04100000000000000000000000045
:105A60000000000000000000000000000000000036
:105A70000000000000000000000000000000000026
:105A80000000000000000000000000000000000016
:105A90000000000000000000000000000000000006
:105AA00000000000000000000000000000000000F6
:105AB00000000000000000000000000000000000E6
:0C5AC0000000000000000000AAAAAAAA32
:04000005080000ED02
:00000001FF
